:020000040800F2
:100000009808002081020008DF3600089F2A0008B7
:10001000DB360008B1220008BF46000800000000DF
:10002000000000000000000000000000DD400008AB
:10003000DD24000800000000593F0008F1410008DD
:100040009B0200089B0200089B0200089B0200081C
:100050009B0200089B0200089B0200089B0200080C
:100060009B0200089B0200089B0200089B020008FC
:100070009B0200089B0200089B0200089B020008EC
:100080009B0200089B0200089B0200089B020008DC
:100090009B0200089B0200089B0200089B020008CC
:1000A0009B0200089B0200089B0200089B020008BC
:1000B0009B020008554200089B0200089B020008B2
:1000C0009B0200089B0200089B0200089B0200089C
:1000D0009B020008E9430008054400085144000859
:1000E0009B0200089B0200089B0200089B0200087C
:1000F0009B0200089B0200089B0200089B0200086C
:100100009B0200089B0200089B0200089B0200085B
:100110009B0200089B0200089B0200089B0200084B
:100120009B0200089B0200089B0200089B0200083B
:1001300000F002F800F094F80AA090E8000C824465
:100140008344AAF10107DA4501D100F089F8AFF242
:10015000090EBAE80F0013F0010F18BFFB1A43F0A5
:10016000010318470876000028760000103A24BFE3
:1001700078C878C1FAD8520724BF30C830C144BF0C
:1001800004680C607047000000230024002500264E
:10019000103A28BF78C1FBD8520728BF30C148BFEA
:1001A0000B6070476E2900F0F584702900F0E7813C
:1001B000662907F07681652907F07381672907F0C2
:1001C00070816129AFF3008003681B0A28BF41F0EA
:1001D0008001692900F05881642900F05581752952
:1001E00000F052816F2900F0F287782900F0B38186
:1001F000E92900F08D87E42900F08A87F52900F0CD
:100200008787EF2900F0EF87F82900F0B2810368B3
:10021000DB0928BF41F08001632900F00E877329B4
:1002200000F01387E32901F0D380F32901F0D8808F
:10023000002070471FB59DE8030000F0FFFB01F0B0
:1002400019F804000020002106F056F8401C6060F8
:100250000020002106F066F8E0601FBD10B510BD5B
:1002600001F0ACF91146FFF7E5FF04F0F7FD01F0EE
:10027000D8F903B4FFF7F2FF03BC01F049FA00001C
:100280000948804709480047FEE7FEE7FEE7FEE72A
:10029000FEE7FEE7FEE7FEE7FEE7FEE70448054966
:1002A000054A064B70470000F5410008310100087F
:1002B000980200209808002098040020980400204C
:1002C00070B5064600F09AFB056806F10B0020F0B9
:1002D0000704B4429CBF002070BD2B466A68BAB1C7
:1002E0001068A04210D304F1080188423CBF506856
:1002F000586007D35168101941601168091B0160EB
:1003000058601460101D70BD13465268002AE7D172
:100310002146284600F07EFB0028DED170BD70B576
:100320000446051F00F06AFB0068002C14BF4468F7
:1003300070BD002C18BFAC423CBF20466468F8D3A7
:1003400001680A18AA4218BF456003D12A68054609
:100350001144016028684119A1421CBF6C6070BD46
:100360006168696021680844286070BD10B5044662
:1003700000F03CFB0068005DC00602D504F12000DF
:1003800010BD204610BD00007CB51D4616460C0071
:10039000009001D02044401E074B7B442A4669460A
:1003A0000190304600F01FFE05461CB10020694652
:1003B00000F02CFE28467CBD790C00000FB41CB563
:1003C000084B06AA7B4469460090059800F00BFE96
:1003D00004460020694600F019FE20461CBC5DF86A
:1003E00014FB0000450C000070B5044685690068E8
:1003F000C10601D5302600E02026C00707D070BD19
:10040000D4E9012130469047206A401C20626D1ECD
:10041000F6D570BD70B5044685690078C00707D170
:1004200070BDD4E9012120209047206A401C206241
:100430006D1EF6D570BD70B50C460546012A05D077
:100440002878800600D5EA69002302E0012305E050
:100450005B1C934202D2E05C0028F9D1A869E6183F
:10046000C01AA861286A184428622846FFF7BCFF12
:1004700004E0D5E9012114F8010B9047B442F8D308
:100480002846FFF7C7FF70BD2DE9F041064600245E
:1004900010687529314616A510D000F010FB002811
:1004A00002DA404213A507E031688A0701D512A598
:1004B00002E0490704D511A5012401E000F008FB82
:1004C00000210A2206F1240709E0B0FBF2FCB0FB90
:1004D000F2F302FB1C00303078541846491C002807
:1004E000F3D123462A463046BDE8F04100F0F9BA80
:1004F000000000002D0000002B0000002000000084
:10050000F0B40D460188090502D5214C7C4402E077
:100510001F4C7C440E34002100F1240608E002F058
:100520000F071209E75D42EA03721B097754491C61
:1005300052EA0307F3D102780023120704D5702D85
:1005400006D009B1022311342246F0BC00F0C9BA2A
:1005500001231034F8E770B504460D4621461068B3
:1005600000F0B6FA024629462046BDE87040002356
:10057000C6E7D21D22F00703D3E90023C0E70368D2
:10058000126843F0200303600823C3610023B7E728
:100590009E7000002DE9F05F894604464FF0000A86
:1005A000DFF874B1FB44C0F820A02046E16888471A
:1005B000002874D0252806D0D4E901219047206A6C
:1005C000401C2062F1E700265F462046E16888472C
:1005D0002028054607DB312D05D2781910F8200CAC
:1005E00008B10643F1E7B00701D526F00406C4F8C8
:1005F0001CA00027C4F818A02A2D09D0284604F012
:100600002BFA38B304EB8708303DC8F8185019E0CE
:1006100059F8041B204604EB87029161E168884782
:10062000012F054618D1E069002820DA26F02006BF
:100630001DE0D8F8180000EB800005EB40003038D2
:10064000C8F818002046E1688847054604F004FA17
:100650000028EED1012F0AD02E2D08D12046E168C6
:1006600088477F1C0546022F46F02006C4DBA069A0
:10067000002803DA404246F00106A061F00701D0ED
:1006800026F010066C2D0BD0682D09D04C2D39D0DA
:100690006A2D35D0742D35D07A2D33D016E038E060
:1006A000E1682F4620468847B842054609D16C2F9D
:1006B00026D04FF48060E16806432046884705460F
:1006C00004E06C2F1AD04FF4807006430DB3A5F1EF
:1006D0004100192802D8203546F400664A462946CA
:1006E000204626604E46FFF75DFD80B101280BD005
:1006F000F61D26F0070000F1080956E74020E4E760
:100700008020D8E70020D6E706F104094DE7284607
:1007100052E7206ABDE8F09F2E70000070B50646D3
:1007200000F070F90468054630460A22002100F006
:1007300065FD2C6070BD401ECAB210F8011F8A42D0
:1007400002D00029F9D10020704710B5431E13F8DC
:10075000014F002CFBD105E011F8014B002C03F8F0
:10076000014B03D0521EF7D20021197010BD30B5D5
:1007700005460B462A4613F8014B12F8010B08B147
:10078000A042F8D01CB1002802D06D1CF1E7284629
:1007900030BD10B5431C02E010F8011B71B1810798
:1007A000FAD14FF0013202C88C1A8C4314EAC211FC
:1007B000F9D0C01A0A0603D0C01E10BDC01A10BD61
:1007C0000A0401D0801E10BD0902FCD0401E10BDDD
:1007D00040EA010370B59B072ED14FF00136042A81
:1007E0002AD308C810C99D1B9D43121F15EAC615C0
:1007F00017D0D8B2E1B2401A50EA056110D198B2D0
:10080000A1B2401A50EA05410AD123F07F4024F0FA
:100810007F41401A50EA052102D1180EA0EB146066
:1008200070BDA342DBD018BA21BA884201D9012099
:1008300070BD4FF0FF3070BD0AB9002070BD10F8D8
:10084000013B11F8014B63B1A3420AD1521E08D0FB
:1008500010F8013B11F8014B1BB1A34201D1521E0C
:10086000EDD1181B70BD032A40F2308010F0030C4C
:1008700000F0158011F8013BBCF1020F624498BFF3
:1008800011F801CB00F8013B38BF11F8013BA2F190
:10089000040298BF00F801CB38BF00F8013B11F00B
:1008A000030300F02580083AC0F0088051F8043BAB
:1008B000083A51F804CBA0E80810F5E7121D5CBF18
:1008C00051F8043B40F8043BAFF30080D20724BF4B
:1008D00011F8013B11F801CB48BF11F8012B24BFDF
:1008E00000F8013B00F801CB48BF00F8012B70472E
:1008F00010B5203AC0F00B80B1E81850203AA0E8BB
:100900001850B1E81850A0E81850BFF4F5AF5FEAEE
:10091000027C24BFB1E81850A0E8185044BF18C9A1
:1009200018C0BDE810405FEA827C24BF51F8043B48
:1009300040F8043B08BF7047D20728BF31F8023B9C
:1009400048BF11F8012B28BF20F8023B48BF00F830
:10095000012B70474FF000020429C0F0128010F004
:10096000030C00F01B80CCF1040CBCF1020F18BF8B
:1009700000F8012BA8BF20F8022BA1EB0C0100F01E
:100980000DB85FEAC17C24BF00F8012B00F8012BF1
:1009900048BF00F8012B70474FF0000200B5134626
:1009A00094469646203922BFA0E80C50A0E80C508F
:1009B000B1F12001BFF4F7AF090728BFA0E80C5040
:1009C00048BF0CC05DF804EB890028BF40F8042B39
:1009D00008BF704748BF20F8022B11F0804F18BFA6
:1009E00000F8012B704770477047704710B500F052
:1009F00041FC001D10BD00BF0159000000487047B8
:100A000040020020004870473802002070477047BD
:100A10007047704738B504460A4600206946AFF370
:100A20000080002808BF38BD02460099204600F02B
:100A300025FC012038BD012000F0B8BDF8B5AFF3AA
:100A40000080054600200C46102000BF0646A8196D
:100A5000A0420DD9324669460020AFF3008007005E
:100A600008BF00F0A3FD0098A04218BF0546C419B6
:100A7000FFF7C4FF05600746F01D20F00700461988
:100A8000284600F00AF8B44208BFF8BDA21B314660
:100A90003868BDE8F84000F0F1BB00210160C0E912
:100AA000011070471020704710B5FFF7ABFF0068CA
:100AB00010BD10B50446FFF7A5FF046010BD09681E
:100AC0004A0501D540B27047C905FCD500B2704750
:100AD00009684A0501D5C0B27047C905FCD580B286
:100AE00070472DE9F0470D4699469246044600F1BD
:100AF00024080168880604D5E06921F0100121600E
:100B000000E00120A84201DD471B00E00027A169A9
:100B10007A1902EB0900081AA0612078C00602D4F5
:100B20002046FFF761FC002608E0D4E901211AF80D
:100B300006009047206A401C761C20624E45F4DB7C
:100B40002078C0060AD52046FFF74EFC06E0D4E91F
:100B5000012130209047206A401C2062381EA7F1F6
:100B60000107F4DC07E0D4E9012118F805009047FB
:100B7000206A401C2062281EA5F10105F3DC2046F6
:100B8000FFF748FC2078000602D50220BDE8F08778
:100B90000120FBE711680268006A530501D508705F
:100BA0000AE0D30501D5088006E0130603D5C21775
:100BB000C1E9000200E008600120704770472DE99C
:100BC000FF4F0C461E464FF0FF378BB0D2E90001B5
:100BD000DDF860800A908A46C1F30A5505B93D46A2
:100BE000002108464FF00000BAF1000F00F4400069
:100BF00005DA00EB80004FF4400101EA50004FEAB3
:100C00009059B9F1010F00DDB9460A9850EA4A003F
:100C10000ED044F61050A5F2FF3545432F14B8F11D
:100C2000000F1ED07542291E1EDDC9F100021CE016
:100C3000B8F1010F4FF0000001D0302103E0F24382
:100C400005E02154401CB042FBDB3046002200216D
:100C500021540B99C1F80880C1E900200FB0BDE80C
:100C6000F08FBD1B6D1CDEE74A4600DA694206A81C
:100C700000F00AFC06AB93E8070003AB83E807002B
:100C800050460A9900F06AFD8DE80700A0F5005073
:100C90001F3800900398002D0ADD42F21F014A46DA
:100CA0000844002303A90390684600F0D3FF09E03D
:100CB000A0F500504A461F38002303A90390684658
:100CC00000F0DDFF8DE807000004000C03D04FF0BA
:100CD000FF30410800E01046B8F1000F03D00022B9
:100CE000009215461EE0751E05D400F0E1FA303280
:100CF00062556D1EF9D5B3460122084302D0002289
:100D00007F1C04E02078302801D100227F1E002AB9
:100D1000099784D01DE0112D07DA00F0C9FA3032AE
:100D200062556D1C50EA0102F5D1084302D00098CB
:100D3000C8B10EE00021681E05E0235C625C6354CC
:100D40002254401E491C8142F7DBAB46A81B401EC3
:100D50000990002004F80B000B98099AC0F808804D
:100D6000C0E9002B7AE711264FF0000857E72DE97C
:100D7000F04F88460446D21D22F0070191B0D1E918
:100D80000001CDE90A0103F0DEFD02460B98C00F19
:100D900001D02D2007E02068810701D52B2002E03B
:100DA000202101EAC000032A099001D0072A05DBAF
:100DB00003464146204600F0C1FA0BE12078800648
:100DC00001D5E06900E00620B8F1650F814606D044
:100DD000B8F1660F18D0B8F1670F70D131E000207C
:100DE000B9F1110F009001DB112301E009F10103BA
:100DF0000AAA01A90CA8FFF7E2FEDDE90C700026A3
:100E000009F10105834647E001204B4600904FF071
:100E100000470AAA01A90CA8FFF7D1FEDDE90DB031
:100E20000C995D46002610B909F101000D18B9EBC7
:100E3000050003D4C0F1FF3609F10105A5EB090057
:100E40002BE0B9F1010F01DA4FF001090020B9F1EF
:100E5000110F0090484601DD112300E003460AAA65
:100E600001A90CA8FFF7ABFEDDE90C704D4600268A
:100E70008346207800070AD4AB4500DA5D4601A816
:100E8000012D04DD411911F8011C302907D04F450F
:100E900002DA17F1040F04DA012082460FE06D1E1A
:100EA000EEE7002F02DCED1B3E4403E0781CA84275
:100EB00000DD7D1CB81B00F1010A4FF000472078CF
:100EC000000703D4AA4501DB4FF0FF3A0021B7F138
:100ED000004F0DF143088DF8431024D002202B233E
:100EE000002F01DA7F422D230A21021EA0F101000A
:100EF00000DC5FB197FBF1FC97FBF1F201FB1C7C7E
:100F000017460CF1300C08F801CDEEE7A8F101000E
:100F100003702188090501D5452100E06521A0F174
:100F2000010800F8011C09980FA9A1EB0807FF1D93
:100F300000B10120411901EBEA70A1693844081A97
:100F4000401EA0612078C00602D42046FFF74CFA6C
:100F5000099828B1D4E901219047206A401C2062F9
:100F60002078C00622D52046FFF73EFA1EE0002E6C
:100F700004DBB34502DD01A8805D00E03020D4E948
:100F800001219047206A401C2062761CAAF10100D2
:100F90005FEA000A0AD100F06DF9C0680168405CA0
:100FA000D4E901219047206A401C2062281EA5F147
:100FB0000105DCDC07E0D4E9012118F8010B9047BA
:100FC000206A401C2062381EA7F10107F3DC20468E
:100FD000FFF720FA032011B041E6000001694A1C26
:100FE00002610878704700B58FB0CDE9013100216A
:100FF000059105497944CDE9031011466846FFF78C
:10100000C9FA0FB000BD0000E5FFFFFF0A6802F853
:10101000010B0A607047D1E900239A4202D2531CA7
:101020000B601070704710B5436913B1AFF30080C7
:1010300001E0FFF700FA012010BD127800F1240151
:101040000A7000224A700122EDE711684FF0FF326A
:10105000E9E700002DE9FF5F15468A460446DFF800
:10106000AC80F8440027D8E900103E46CDE90010D6
:1010700010E03AF816106A4602A800F077FA411C10
:1010800007D02178890603D5E269391891420DD835
:101090000744761C2078800602D5E069B84205DD59
:1010A000AE42E6DB3AF816000028E2D1A069C01B88
:1010B000A0612046FFF798F9D8E90010CDE90010AB
:1010C000002017E03AF818106A4602A800F04EFA1D
:1010D000B0F1FF3F81460BD000250DF1080B05E074
:1010E000D4E901211BF8050090476D1C4D45F7D34D
:1010F00008F10100B0428046E4DB206A38442062F7
:101100002046FFF787F9BDE8FF9F00000A66000050
:101110002DE9F0418046D21D22F007020025D2E9D8
:101120000002F52915A614D0011E72F1000106DA9D
:101130000023D0EB030063EB020211A608E0D8F80D
:1011400000108B0701D50FA602E0490701D50EA6B6
:1011500001251146002408F1240704E000F0A8F856
:1011600030323A55641C50EA0102F7D12B46324620
:1011700021464046BDE8F041FFF7B3BC0000000047
:101180002D0000002B0000002000000030B40021E2
:1011900000F1240408E002F00705D208303542EAE5
:1011A0004372DB086554491C52EA0305F3D1046815
:1011B000002310A2250707D5A40600D421B1C469D5
:1011C00001230DA2641EC46130BCFFF78ABC10B5B8
:1011D000044621461068FFF77BFC02462046BDE826
:1011E00010400023D2E7D21D22F00701D1E90023ED
:1011F000CCE7000000000000300000002DE9F047BF
:1012000091460F4680460446002614F8015B2DB136
:10121000FFF7ECFB0068405DC007F6D12B2D02D034
:101220002D2D18D0641E4A463946204600F0DCF8C1
:1012300027B13968A14201D1C7F800804FF00204FC
:1012400071050BD54042002803DDFFF7DBFB04608E
:10125000A007BDE8F08746F48066E4E70028F8DAE6
:10126000FFF7D0FB04606FF00040F2E700487047E2
:1012700038020020004870475802002003464068AA
:101280008C46002818BF88423CBF03464068F8D30C
:1012900018681844884207D00CF1030020F00700BA
:1012A000001D411A521A0146081D0A60FFF737B89F
:1012B00030B5B0F10A024FEA900E71F100034EEA28
:1012C000817EB0EB0E0061EB91014FEA101E4EEAF9
:1012D000017E10EB0E0041EB11114FEA102E4EEA89
:1012E000016E10EB0E0041EB11214FEA104E4EEA59
:1012F000014E10EB0E0041EB1141401841F100018D
:101300004FEAD00040EA41704FEAD10110EB80056E
:101310004FEA810444EA907444EB01046D1944EBF4
:101320000404521BA3414FF0000348BF0A3200D50A
:1013300030BD401C41F1000130BD00002DE9F041FD
:101340001F46044603260168072A01F4006004DBF7
:1013500008B116A505E016A503E008B115A500E043
:1013600015A521F010002060A069C01EA0610FB17A
:10137000401EA0612046FFF737F84FB1D4E90121A4
:1013800038469047206A401C2062C01C206206E05C
:10139000206AFAE7D4E9012115F8010B9047761E7F
:1013A000F8D22046FFF736F8BDE8F0814E414E00F6
:1013B0006E616E00494E4600696E660010B5436965
:1013C00013B1AFF3008001E0FFF744FE012010BD30
:1013D000128800F1240182840022C2840122EDE7F8
:1013E00011684FF0FF32E9E72DE9F05F82461546BC
:1013F0008B4600270AF10104B9460078302801D055
:101400009DB113E014F8010B0127782803D0582868
:1014100001D045B10AE00DB1102D07D1002714F815
:10142000010B102502E0082500E00A250026B04641
:101430000EE005FB080005FB06F101271FFA80F806
:1014400001EB1046B6F5803F00D3B94614F8010B06
:10145000294600F0D8F80028EBDABBF1000F05D0E0
:101460000FB1641E00E05446CBF80040B9F1000F04
:1014700006D0FFF7C7FA02210160C81EBDE8F09F41
:1014800048EA0640FAE700002DE9F0478146164693
:101490008AB0354878440DC88DE80D00324878444C
:1014A000801C03AC0DC884E80D0041F69B30084455
:1014B000372190FBF1F290FBF1F5A5F1800501FBDE
:1014C00012041B3C02D56442012000E00020DFF83A
:1014D00098A080460027FA44AAF1BE0A0EE0E00771
:1014E0000AD03246684607EB470101230AEB810127
:1014F00000F0C5FB8DE8070064107F1C002CEED1C6
:10150000194F7F44AE3F19E0E80715D007EB0410F0
:101510000DF1180A90E80E008AE80E00C068F0424B
:1015200001D1981908903246012306A903A800F0BA
:10153000A6FB03AB83E807006D10641C002DE3D10C
:101540004FF0010332466946B8F1000F03A802D0FC
:1015500000F080FB01E000F092FBC9E90001C9F84E
:1015600008200AB0BDE8F0876462000070B5164636
:101570000C460546FFF73AFA036893F80101012883
:1015800006D0FF2C0FD8185D68B101202C7070BDFB
:10159000D3F807013246214603F2071303442846D5
:1015A000BDE8704018474FF0FF3070BD10B500F037
:1015B00047F8BDE8104000F03DB870477546FFF7AA
:1015C00055FEAE4605006946534620F007008546A5
:1015D00018B020B5FEF762FEBDE820404FF00006CF
:1015E0004FF000074FF000084FF0000B21F007010B
:1015F000AC46ACE8C009ACE8C009ACE8C009ACE84E
:10160000C0098D4670473A2800D2303820F02002B9
:10161000412A01D3A2F13700884201D34FF0FF30B5
:10162000704710B50446AFF300802046BDE8104077
:10163000FEF71FBE002801D000F06AB87047000016
:1016400010B5012805D0002103A000F067F80120A3
:1016500010BD09A1F8E7000053494752544D454DCC
:101660003A204F7574206F662068656170206D6543
:101670006D6F7279000000003A2048656170206D3E
:10168000656D6F727920636F727275707465640036
:101690004FF0013C50F8042B51F8043B9A4221D101
:1016A000A2EB0C03934313EACC1317D150F8042B8D
:1016B00051F8043B9A4215D1A2EB0C03934313EA71
:1016C000CC130BD150F8042B51F8043B9A4209D1AA
:1016D000A2EB0C03934313EACC13DBD04FF00000D2
:1016E000704700BFD01A01BAB1FA81F101F01801B8
:1016F00022FA01F0CB40C1F12001DBB2C0B2C01A26
:101700002CFA01F3D11A914311EAC311E6D17047C3
:1017100001491820ABBEFEE72600020070B5054661
:101720000C460A2000E06D1C00F011F835B1287855
:101730000028F8D102E0641C00F009F814B1207808
:101740000028F8D1BDE870400A20AFF3008008B54A
:1017500069468DF800000320ABBE08BD5FEA400C6F
:1017600008BF91F0000F4FEA8C234FEAC12243EAF1
:1017700051514FEA1C5018BF00F5F0404FEA3000BD
:1017800018BF41F000415FEA6C5C00F02980BCF1B9
:10179000FF3F08BF40F080407047130C06BF1204A3
:1017A0004FF0100C4FF0000C130E04BF12020CF19E
:1017B000080C130F04BF12010CF1040C930F04BFAB
:1017C00092000CF1020CD30F04BF52000CF1010C7B
:1017D00011464FF00002A0F11F00A0EB0C00704773
:1017E00011F0004F08BF704731F000413FF4D5AF12
:1017F0000B0C06BF09044FF0100C4FF0000C0B0E41
:1018000004BF09020CF1080C0B0F04BF09010CF115
:10181000040C8B0F04BF89000CF1020CCB0F04BF2A
:1018200049000CF1010CCCF12003A0EB0C0022FAD2
:1018300003F302FA0CF241EA030100F101007047E0
:1018400020F07F4C80EA030023F07F47ACEB0703D6
:1018500003F57C5300F0004003F1FF032DE98049BC
:101860004FEA154B09B44FEA144325EA0B4E24EA1C
:1018700003480FF2042606EB132749083E785FEA77
:10188000320203FB0667C7F5000707FB06F64FEABF
:1018900054374FEAD64606F1020607FB066CCCF138
:1018A000005C4FEA1C472CEA074C07FB06F40CFBD4
:1018B00006F504EB15464FEA961634BF00204FF0AC
:1018C00000404FEAD13706FB07FC4FEA1C4C0CFBEB
:1018D0000BF7D21B03FB0CF761EB07010CFB0EF7B8
:1018E000B0EB074072EB17420CFB08F734BFA2EBDA
:1018F0000742B2EB074261EB17414FEA0C444FEA53
:10190000910706FB07FC4FEA1C4C0CFB0BF7B0EBF6
:10191000C74072EB573203FB0CF734BFA2EBC74250
:10192000B2EBC74261EB57310CFB0EF7B0EBC700CF
:1019300072EB57720CFB08F734BFA2EBC702B2EB95
:10194000C70261EB5771039F4FEA816141EA92112F
:1019500004EBCC044FEAD1374FEA826206FB07FC66
:1019600042EA90124FEA80604FEA1C4C0CFB0BF7E6
:10197000D21B03FB0CF761EB07010CFB0EF7B0EB7E
:10198000074072EB17420CFB08F734BFA2EB07428B
:10199000B2EB074261EB17414FEA8C554FEA9107D2
:1019A00004EB9C2406FB07FC4FEA1C4C0CFB0BF7DA
:1019B000B0EBC74072EB573203FB0CF734BFA2EB1E
:1019C000C742B2EBC74261EB57310CFB0EF7B0EBED
:1019D000C70072EB57720CFB08F734BFA2EBC702CB
:1019E000B2EBC70261EB577115EB4C254FEA8161F1
:1019F00041EA92114FEA82624FEAD13742EA9012ED
:101A000006FB07FC44F100044FEA80604FEA1C4CDF
:101A10000CFB0BF7D21B03FB0CF761EB07010CFB74
:101A20000EF7B0EB074072EB17420CFB08F734BF20
:101A3000A2EB0742B2EB074261EB174115EB1C1515
:101A40004FEA813141EA92414FEA823242EA9042C2
:101A50004FEA80304FEA0C7644F1000448EA034331
:101A60004EEA0B484FF0000EB2EB080C71EB030787
:101A700024BF624639464EEB0E0E4FF0000B0018A5
:101A8000524149414BEB0B0BB2EB080C71EB0307D6
:101A90007BF1000B24BF624639464EEB0E0E4FF031
:101AA000000B0018524149414BEB0B0BB2EB080CF9
:101AB00071EB03077BF1000B24BF624639464EEB06
:101AC0000E0E51EA020718BF46F0010616EB0E761D
:101AD00055F1000254F1000103D5BDE88901BDE8CC
:101AE0000088BDE88901BDE80048B619524141EBC4
:101AF0000101A3F10103704780807F7E7D7C7B7AAA
:101B00007978777676757473727171706F6E6E6DA9
:101B10006C6C6B6A6A69686867666665646463634F
:101B200062616160605F5F5E5E5D5D5C5C5B5B5AD5
:101B30005A59595858575756565555555454535342
:101B400052525251515050504F4F4F4E4E4D4D4D9D
:101B50004C4C4C4B4B4B4A4A4A49494948484847E8
:101B60004747474646464545454444444443434326
:101B70004342424242414141002B9C4630D47700CF
:101B80002BD01CB54FEA370703B44FF010004FF0CD
:101B90001001BAF1000F06D0BCF1000FDCBF40F01D
:101BA000080040F008014FF000000FBCBDE81040F5
:101BB0000BF1010BBBF1010F08BF5FEA170722BF52
:101BC00012F1010211F101014FF0004143F1000354
:101BD00000F0004043EA00007047F9D35708D0E70F
:101BE00046EA064613F1400F4FEA16461FDD13F191
:101BF000200FDFBF16430A46002120335B42BED0D0
:101C0000C3F1200746EA064602FA07F74FEA1646EE
:101C100046EA0706C3F1200722FA03F201FA07F7A2
:101C200021FA03F14FF0000342EA0702A7E746EA70
:101C3000020646EA06464FEA164646EA0106BCBFD9
:101C400046EA0646360C4FF000034FF000024FF014
:101C5000000194E72DE9804C9A46934670B491E8D0
:101C6000380007C831EA400C48BF34EA430C03D5BA
:101C7000FFF7E6FDFFF780FFF0BCBDE8008C2DE923
:101C8000804C9A46934670B491E8380007C810F02B
:101C9000804F08BF13F0804F03D100F005F8FFF725
:101CA0006BFFF0BCBDE8008C20F07F4780EA0300AA
:101CB00023F07F4C07EB0C03A3F57C5300F00040AE
:101CC000A3F1FE0392F0000F00F0B38095F0000F37
:101CD00000F077802DE901494FEA11404FEA1446A0
:101CE00021EA004800FB06FC24EA064708FB06F64A
:101CF00007FB08F800FB07F718EB06484CEB164CFF
:101D00004FEA124B18EB07484FEA15464CEB1740C9
:101D100022EA0B4E0BFB06FC25EA06470EFB06F6F5
:101D200007FB0EFE0BFB07F71EEB064E4CEB164CAB
:101D30004FF000061EEB074E4CEB174B18EB0B0851
:101D400040F1000018EB0E0B58EB000840F10000CA
:101D50008F1A4FF000013CBFC943661B14BFB5EB9F
:101D6000040C00213CBFC943F61B4FEA17444EEA5E
:101D70008E0E27EA04454FEA1C4704FB07622CEA53
:101D8000074C05FB07F70CFB05F604FB0CFC16EBF8
:101D9000074642EB174216EB0C4642EB1C421BEB8C
:101DA000060658EB0202414146EA9E0601D5BDE80F
:101DB0000189B619524141EB0101A3F10103BDE8CC
:101DC00001894FEA14454FEA114724EA054621EA02
:101DD000074C05FB07F406FB07F70CFB06F105FBB8
:101DE0000CFC11EB074144EB17444FEA124711EB8F
:101DF0000C4144EB1C4422EA074C05FB07F206FBAE
:101E000007F70CFB06F605FB0CFC16EB074642EB4E
:101E1000174216EB0C4642EB1C456A1854F10001C0
:101E200048BF7047B619524141EB0101A3F10103CC
:101E3000704795F0000F37D04FEA11424FEA144730
:101E400021EA024624EA074C02FB07F106FB07F7EA
:101E50000CFB06F402FB0CFC14EB074441EB1741AE
:101E60004FEA154714EB0C4441EB1C4125EA074CA3
:101E700002FB07F506FB07F70CFB06F602FB0CFC62
:101E800016EB074645EB174516EB0C4645EB1C4297
:101E9000121951F1000148BF7047B619524141EB88
:101EA0000101A3F1010370474FEA14454FEA1147BE
:101EB00024EA054621EA074C05FB07F106FB07F774
:101EC0000CFB06F24FF0000605FB0CFC12EB074280
:101ED00041EB174112EB0C4251EB1C4148BF7047DC
:101EE000921841EB0101A3F10103704721B182680F
:101EF00042F00102826003E0826822F00102826007
:101F00007047000010B504461248844208D10121F0
:101F1000401502F04FF80021601502F04BF817E071
:101F20000D48844208D10121001502F043F8002138
:101F3000201502F03FF80BE00848844208D1012147
:101F4000C80302F037F800214FF4004002F032F8E5
:101F500010BD00000024014000280140003C014069
:101F6000014600208A6802F004020AB1012000E064
:101F7000002070470146C86C80B2704702460020BE
:101F800013680B400BB1012000E0002070470146B0
:101F900000208A6802F008020AB1012000E0002057
:101FA0007047000030B502460020002350680F4CF7
:101FB00020400D790C6844EA052420435060906865
:101FC0000B4C2040D1E902542C434D7944EA45049E
:101FD00020439060D06A20F470000C7C641EE4B250
:101FE000234340EA0350D06230BD0000FFFEF0FF03
:101FF000FDF7F1FFF0B504460D4600200021092D44
:1020000011DDE068A5F10A0606EB4607072606FA89
:1020100007F18843A5F10A0606EB460603FA06F126
:102020000843E0600CE0206905EB4507072606FA47
:1020300007F1884305EB450603FA06F108432061E2
:10204000072A0FDA606B561E06EB86071F2606FA74
:1020500007F18843561E06EB860605FA06F108438B
:10206000606322E00D2A0FDA206BD61F06EB86078D
:102070001F2606FA07F18843D61F06EB860605FAE7
:1020800006F10843206310E0E06AA2F10D0606EBBA
:1020900086071F2606FA07F18843A2F10D0606EB14
:1020A000860605FA06F10843E062F0BD816841F05A
:1020B00008018160704721B1826842F4A002826009
:1020C00003E0826822F4A00282607047816841F0D8
:1020D000040181607047000000B587B001214FF412
:1020E000047001F057FF4FF4004001F037FF01206A
:1020F000ADF8040000208DF8070001A9174800F092
:10210000C7FB1748FFF7FEFE002002908DF80C0079
:102110008DF80D004FF46020049000200590012000
:102120008DF8180002A90E48FFF73CFF01210C486A
:10213000FFF7DCFE0A48FFF7B9FF00BF0848FFF7CA
:1021400026FF0028FAD10648FFF7C0FF00BF044869
:10215000FFF706FF0028FAD107B000BD00100140CC
:102160000024014000B587B001214FF4017001F057
:1021700011FF4FF4004001F0F1FE0220ADF8040021
:1021800000208DF8070001A9174800F081FB1748CF
:10219000FFF7B8FE002002908DF80C008DF80D00BE
:1021A0004FF4602004900020059001208DF8180065
:1021B00002A90E48FFF7F6FE01210C48FFF796FE34
:1021C0000A48FFF773FF00BF0848FFF7E0FE00284A
:1021D000FAD10648FFF77AFF00BF0448FFF7C0FEB8
:1021E0000028FAD107B000BD0008014000240140DA
:1021F00008B50121082001F0CDFE4FF48070ADF844
:10220000000010208DF8030003208DF802006946BD
:10221000044800F03DFB4FF48071024800F0CCFB15
:1022200008BD0000000C014010B5044602F0D0FDCE
:10223000462002F0A3FD02F0F3FD012800D110BDFD
:10224000204602F09BFD02F0EBFD012801D10220A7
:10225000F5E702F0D5FD0020F1E710B500F022FC13
:1022600000F004F81020FFF7DFFF10BD10B50120CB
:10227000FFF7DAFF10BD10B5002402F0A9FD4720DA
:1022800002F07CFD02F0CCFD012801D1002010BD40
:1022900002F052FD044602F01BFD02F04DFD00EB82
:1022A000042084B202F034FD02F0AAFD2046EEE7DD
:1022B00000BFFEE70FB410B5CCB002AC4FA8019040
:1022C0004FF4947102A8019B4E9AFEF75DF800202E
:1022D00001900EA1104802F0F9FA0BE014F8011B6E
:1022E0000D4802F0E8F900BF40210B4802F015F953
:1022F0000028F9D020780028F0D108A1064802F083
:10230000E5FA4CB010BC5DF814FB00005B4C4F4785
:102310005D202F3E20000000003801400D0A000023
:1023200010B500241548006820F00F00134908601C
:102330000846006840F00800086004E0601CC4B271
:10234000012002F085FC0E48006808B1642CF5DB22
:10235000642C01DB012010BD002404E0601CC4B229
:10236000012002F075FC0648006808B9642CF5DB12
:10237000642C01DB0120EEE70020ECE704080140BB
:102380002001214208B50121042001F003FE4FF491
:102390008070ADF8000010208DF8030003208DF848
:1023A00002006946064800F073FA4FF48071044851
:1023B00000F004FB00F072F8FFF7B2FF08BD000068
:1023C0000008014010B5002404E0601CC4B20120E4
:1023D00002F03EFC0D48006808B1642CF5DB0024D7
:1023E00004E0601CC4B2012002F032FC074800681F
:1023F00008B9642CF5DB282002F02AFC03480068A9
:1024000008B1012010BD0020FCE70000200121429E
:1024100070B50024002506E06006040EFFF7D2FF29
:102420000443681CC5B2082DF6DB204670BD2DE9BB
:10243000FC4105460E461746984600F02FF8FFF778
:102440006FFF30BB002405E0FFF7E2FF0DF804004A
:10245000601CC4B2052CF7DB9DF800009DF801104C
:1024600008449DF8021008449DF8031008449DF8A4
:102470000410884210D19DF8000028709DF80100DA
:1024800030709DF8020038709DF8030088F8000055
:1024900002E00120BDE8FC810020FBE710B50C48FC
:1024A000006820F00F000A4908600846006840F004
:1024B00003000860002007490860142002F0A2FB16
:1024C00001200549C1F8A0011E2002F0C1FB10BD8A
:1024D00004080140A0012142000021427047000091
:1024E00010B580210348FEF735FA00200249088024
:1024F00010BD0000B80100207000002070B5054636
:10250000002400BF00F0AAF980B90DA10E48FEF723
:102510002EF9044654B13A212046FEF70CF9044640
:1025200014B1641C204670BD0020FCE7052002F0B9
:1025300069FB681E85B2002DE4DC0020F3E7000093
:102540004950442C00000000B801002010B5FFF7EE
:10255000C7FF31A0FFF7AEFE03E04FF4FA7002F0C0
:1025600051FB34A134A000F02BF90028F5D134A0A0
:10257000FFF7A0FE2EA138A000F022F94FF4FA7068
:1025800002F040FB2AA137A000F01AF94FF4FA70CC
:1025900002F038FB37A0FFF78DFE03E04FF4FA702E
:1025A00002F030FB23A13EA000F00AF90028F5D18B
:1025B0003FA0FFF77FFE03E04FF4FA7002F022FB2A
:1025C0001CA145A000F0FCF80028F5D146A0FFF7BB
:1025D00071FE03E04FF4FA7002F014FB48A14AA028
:1025E00000F0EEF80028F5D14FA0FFF763FE03E0FE
:1025F0004FF4FA7002F006FB52A154A000F0E0F88C
:102600000028F5D101205D4908705DA0FFF752FE5A
:1026100065A0FFF74FFE10BD302E204154202D2025
:10262000B2E2CAD44D43552D38323636CDA8D1B694
:10263000000000004F4B000041540D0A0000000054
:10264000312E2041542B525354202D20C8EDB8B4C4
:10265000CEBB38323636000041542B5253540D0A4B
:102660000000000041542B434950434C4F53450D4B
:102670000A000000322E2041542B43574D4F444551
:102680003D312C31202D20C9E8D6C338323636B939
:10269000A4D7F7C4A3CABDCEAA535441000000007A
:1026A00041542B43574D4F44453D310D0A00000026
:1026B000332E2041542B4357444843503D312C3155
:1026C000202D20CAB9C4DC535441C4A3CABDCFC213
:1026D000444843500000000041542B4357444843B2
:1026E000503D312C310D0A00342E2041542B4357DC
:1026F0004A4150202D20C1ACBDD357494649000066
:10270000474F54204950000041542B43574A4150F1
:102710003D226950686F6E65222C22313233343588
:10272000363738220D0A0000352E2041542B4349FC
:10273000505354415254202D20C1ACBDD3B7FECECE
:10274000F1C6F700434F4E4E4543540041542B43CE
:10275000495053544152543D22544350222C22623A
:10276000726F6B65722E686976656D712E636F6D21
:10277000222C313838330D0A0000000006000020FA
:10278000362E204553503832363620496E69742033
:102790004F4B202D2045535038323636B3F5CABC46
:1027A000BBAFB3C9B9A6000045535038323636B373
:1027B000F5CABCBBAF0909095B4F4B5D00000000C7
:1027C0002DE9F04104460D46C8262046FDF7E1FFFD
:1027D00087B23A4621460D4802F09CF80FE000F01F
:1027E0003DF848B929460A48FDF7C1FF20B1FFF777
:1027F00077FE0020BDE8F0810A2002F003FA301EC7
:10280000A6F10101CEB2EAD10120F3E70044004075
:10281000B801002030B589B004460D46FFF760FED0
:102820002A4608A101A8FDF7C9FD0AA101A8FFF7E2
:10283000C7FF20B92A462146074802F06BF809B0C5
:1028400030BD000041542B43495053454E443D2573
:10285000640D0A003E000000004400400A48008861
:1028600008B901207047084800880849098888424B
:1028700003D1002004490880F4E703480088034995
:1028800008800120EEE700007000002072000020A8
:102890002DE9F041024600250026002000230024F7
:1028A000002791F803C00CF00F0591F803C00CF05D
:1028B000100CBCF1000F03D091F802C04CEA0505E2
:1028C00091F800C0BCF1000F31D0146800202BE05B
:1028D0004FF0010C0CFA00F3B1F800C00CEA03064B
:1028E0009E4220D183004FF00F0C0CFA03F7BC433B
:1028F00005FA03FC4CEA040491F803C0BCF1280F6C
:1029000006D14FF0010C0CFA00FCC2F814C00AE02A
:1029100091F803C0BCF1480F05D14FF0010C0CFA3F
:1029200000FCC2F810C0401C0828D1D31460B1F8D4
:1029300000C0BCF1FF0F34DD546800202EE000F130
:10294000080C4FF0010808FA0CF3B1F800C00CEACB
:1029500003069E4221D183004FF00F0C0CFA03F7BF
:10296000BC4305FA03FC4CEA040491F803C0BCF133
:10297000280F05D100F1080C08FA0CF8C2F81480F1
:1029800091F803C0BCF1480F07D100F1080C4FF0DB
:10299000010808FA0CF8C2F81080401C0828CED3B1
:1029A0005460BDE8F0810246002093680B400BB1F3
:1029B000012000E0002070474161704701617047CD
:1029C00010B504460723012221460948FFF712FBF0
:1029D00001210748FFF76FFB00BF02210448FFF702
:1029E000CDFA0028F9D00248FFF7C4FA10BD000064
:1029F000002401402DE9F04107460C460025002641
:102A000008E03846FFF7DCFF0544052002F0FAF83D
:102A1000701CC6B2A642F4DBB5FBF4F080B2BDE890
:102A2000F081000070B5044600250FE05CB121463E
:102A3000084801F040FE00BF8021064801F06DFD0E
:102A40000028F9D000E070BD681CC5B2032DEDDB95
:102A500000BFF8E70048004070B50446002510E0CC
:102A6000605D68B1615D074801F025FE00BF80210F
:102A7000044801F052FD0028F9D0681CC5B200E0FE
:102A800070BDEDE70048004010B5C82002F0BAF86C
:102A9000FF20FFF7C7FFC82002F0B4F810BD00BF49
:102AA000FEE7000008B50121082001F073FAC020FC
:102AB000ADF8000003208DF8020014208DF803000B
:102AC00069460348FFF7E4FE02F09AF908BD0000EA
:102AD000000C014008B50121482001F05BFA2020DC
:102AE000ADF8000010208DF8030003208DF80200DF
:102AF00069460948FFF7CCFE20210748FFF75CFF35
:102B00002020ADF8000069460448FFF7C1FE2021EF
:102B10000248FFF753FF08BD000C014000180140B8
:102B200070B5FFF7A8FB064604F066FB05460449AE
:102B300004F088FA04464FF07E5104F071FB70BD3A
:102B4000CDCC8C3F2DE9F05F1E210120FFF752FF15
:102B50003A4908800846008804F04EFB054638498B
:102B600004F05EFB04464FF08B4104F06BFA3549EC
:102B700008600846006804F0D7F98046324A334BB3
:102B800003F018FC06460022314B03F0BDFE04465C
:102B900003F024FE834604F017FB82462D4904F01F
:102BA00051FA2849086008460168254804F004FCE9
:102BB000054624480168284604F044FA044626499C
:102BC00004F02EFB2549086025480088142816DAF1
:102BD0000022244B4FF08040234902F057FE064666
:102BE0000F461E48006804F09FF9804632463B4677
:102BF00003F09CFC044603F0ABFB1C4908601B4837
:102C000001681648006804F01DFA824604F08CF949
:102C100080464FF08042164B02F038FE06464FF0D9
:102C20008042144B03F070FE044603F091FB1249FE
:102C3000086008460068BDE8F09F000038000020EA
:102C4000333353403C0000207B14AE47E17A743F9D
:102C5000000059400000C8420000A0404000002091
:102C60004C000020B6DBDEBF24AEA03F34000020C5
:102C70008D9700C0332F83404400002010B50446D8
:102C8000207B012802D12068FDF749FB002020604D
:102C90006060A060207310BD0246002301230DE098
:102CA00002F07F000870D2092AB1087840F0800055
:102CB0000870491C01E0184670475B1C042BEFDDCF
:102CC0004FF0FF30F8E770B504460E460025206847
:102CD00098B9012020733046FDF7F2FA2060206891
:102CE000E0B100206060A66003E000202168485544
:102CF0006D1CA068A842F8D810E00220207303E001
:102D00000020216848556D1CA068A842F8D8002012
:102D10006060A068B04201D20020206070BD000059
:102D20002DE9FF4F83B082468B469146159C0025C6
:102D3000002002900F2701904846FDF72AFD0FFA68
:102D400080F8B9F1000F03D1012007B0BDE8F08F82
:102D500008F10200384487B2109808B145F0020526
:102D6000129878B145F004051298FDF712FDC0B233
:102D700002901398FDF70DFD01460298001D0844CE
:102D8000384487B2119820B1012804D0022808D114
:102D900004E000BF07E045F00C0504E045F0140531
:102DA00001E00220D1E700BF149808B145F02405E6
:102DB000BAF1000F02D0BBF1000F01D10320C4E72C
:102DC00045F0C0055046FDF7E4FC06465846FDF7C1
:102DD000E0FC3044001D384487B239462046FFF7F6
:102DE00072FF206808B90420AFE739462068FDF774
:102DF000B1FD10216268501C606020688154D4E9E4
:102E00000023D118781FFFF747FF00B20190019807
:102E1000002804DA2046FFF731FF052095E76168B6
:102E200001980844606000216268501C606020685E
:102E3000815404216268501C6060206881544D21D7
:102E40006268501C60602068815451216268501C87
:102E500060602068815454216268501C6060206862
:102E600081546268501C606020688154042162684B
:102E7000501C6060206881546168481C6060206854
:102E800045540698010A6268501C606020688154AD
:102E90000698C1B26268501C606020688154C8F313
:102EA00007216268501C6060206881546268501C71
:102EB0006060206800F80280D4E900128818424659
:102EC0004946FDF742FC60684044606005F004003C
:102ED000B8B30026139808B938A013901298FDF7DC
:102EE00058FC86B2310A6268501C606020688154C8
:102EF0006268501C606020688654D4E9001288180B
:102F000032461299FDF721FC6068304460601398E6
:102F1000FDF73FFC86B2310A6268501C6060206891
:102F200081546268501C606020688654D4E90012A5
:102F3000881832461399FDF708FC606830446060D9
:102F400000BF05F08000C8B15046FDF722FC86B2F4
:102F5000310A6268501C6060206881546268501CAD
:102F6000606020688654D4E90012881832465146C1
:102F7000FDF7EBFB60683044606000BF05F0400087
:102F8000C8B15846FDF705FC86B2310A6268501C8C
:102F90006060206881546268501C606020688654BC
:102FA000D4E90012881832465946FDF7CEFB606816
:102FB0003044606000BF0020C7E600000000000051
:102FC0002DE9FF4F83B0834690469946139C002617
:102FD00000250020029001900027BBF1000F03D1D3
:102FE000012007B0BDE8F08F00250AE00498405D9D
:102FF000232803D00498405D2B2801D10220F0E75C
:103000006D1C0498405D0028F0D147F030071198FE
:1030100008B147F0010705EB0900861C109820B1A4
:10302000012804D002280AD105E000BF09E047F0DA
:103030000207B61C05E047F00407B61C01E00320B8
:10304000CFE700BF98F80000022822D14FF0000A15
:1030500000BF50460AF1010A18F800007D28F8D197
:10306000AAF1030A0AF1070002900298A9EB000AEC
:10307000F01CA0EB0A012046FFF725FE206808B9E6
:103080000420AEE7F21CA2EB0A012068FDF762FC07
:103090000BE0F11C2046FFF716FE206808B904205B
:1030A0009FE7F11C2068FDF755FC6168481C6060D3
:1030B00020684754D4E9000281183046FFF7ECFD40
:1030C00001900198002804DA2046FFF7D7FD05207B
:1030D00087E76168019808446060C5F3072162686A
:1030E000501C6060206881546268501C60602068D9
:1030F0008554D4E9001288182A460499FDF725FB67
:10310000606828446060109860B14FEA1B216268D3
:10311000501C6060206881546268501C60602068A8
:1031200000F802B0B8F1000F19D098F8000002289A
:103130000BD1D4E9001288184146029AFDF793FB9F
:10314000616802980844606009E0D4E900128818B8
:103150004A464146FDF787FB6068484460600020AE
:103160003FE770B505460C4604212046FFF7ABFD4E
:10317000206808B9012070BD70216268501C606031
:103180002068815402216268501C6060206881546C
:1031900029126268501C6060206881546268501C6B
:1031A0006060206885540020E5E770B505460C4650
:1031B00004212046FFF787FD206808B9012070BD73
:1031C00062216268501C606020688154022162683C
:1031D000501C60602068815429126268501C606035
:1031E000206881546268501C60602068855400200B
:1031F000E5E72DE9FF5F8046174699460E9C0026BD
:10320000B246B3460025B8F1000F03D1012004B047
:10321000BDE8F09F0BE057F8250008B90220F6E75B
:1032200057F82500FDF7B5FA0644681CC5B24D45B0
:10323000F1DB09EB4900801C00EB060A0AF10501ED
:103240002046FFF740FD206808B90320DFE7822110
:103250006268501C606020688154D4E900028118C3
:103260005046FFF719FD0FFA80FBBBF1000F04DA9F
:103270002046FFF703FD0420C9E7606858446060FA
:103280004FEA18216268501C6060206881546268AF
:10329000501C6060206800F80280002524E057F888
:1032A0002500FDF776FA0646C6F307216268501C32
:1032B0006060206881546268501C60602068865499
:1032C000D4E90023D01857F825103246FDF73DFA0F
:1032D0006068304460600198C1B26268501C6060F0
:1032E00020688154681CC5B24D45D8DB00208EE7AC
:1032F000F0B504460D46264601230020106000214B
:1033000014E0775C07F07F07106807FB030010608C
:10331000705C00F0800008B9481CF0BDDB01B3F51B
:10332000001F02D36FF00100F7E7491CA942E8DB58
:103330004FF0FF30F1E72DE9F84380460C46154683
:103340001E462F2108F10600FDF7F5F9074600207B
:10335000009017B90120BDE8F8837F1C6A4604215C
:1033600008F10100FFF7C4FF2520FCF7A9FF20604A
:10337000206808B90220EEE725212068FDF7EAFA67
:10338000242239462068FDF76EFA243700982C383D
:1033900030803188481CFCF793FF2860286820B9EA
:1033A0002068FCF7BCFF0320D5E73288511C286851
:1033B000FDF7D0FA328839462868FDF754FA002024
:1033C000C9E701464878022801D001207047887873
:1033D00010B18878012801D1C878F7E7FF20F5E718
:1033E0002DE9FC5F81460D4614461E46DDE90C8B37
:1033F00099F8000000F00F0A002001900AF0080080
:103400000090CAF341008BF8000001AA042109F1E1
:103410000100FFF76DFF4844471C0198022802D3C2
:103420000AF0010010B1FF20BDE8FC9F78783978E0
:1034300040EA012020802088801C0199884201D91F
:10344000FF20F1E754A1B81CFDF791F908B10F2056
:10345000EAE79BF8000020B101283DD0022877D18F
:103460003BE0009808B1FF20DEE72188481CFCF70C
:1034700027FF2860286808B9FF20D5E72288511C5B
:103480002868FDF767FA2288B91C2868FDF7EBF970
:103490000198801E2188401AA8F80000B8F8001092
:1034A000481CFCF70DFF3060306820B92868FCF735
:1034B00036FFFF20B8E7B8F80020511C3068FDF750
:1034C00049FAB8F80020B4F800C0BB1C0CEB0301AB
:1034D0003068FDF7C8F94FE000BF2088801C0199D3
:1034E000884201D9FF209FE72088C01C395C2088D2
:1034F000801C385C41EA00210E9801800E9808B9C2
:10350000FF2091E72188481CFCF7DAFE2860286834
:1035100008B9FF2088E72288511C2868FDF71AFAAD
:103520002288B91C2868FDF79EF90198001F2188A0
:10353000401AA8F80000B8F80010481CFCF7C0FEBC
:103540003060306828B92868FCF7E9FEFF206BE797
:1035500010E0B8F80020511C3068FDF7FBF9B8F80E
:103560000020B4F800C03B1D0CEB03013068FDF7F0
:103570007AF901E0FF2057E700BF2B212846FDF72D
:10358000DAF820B923212846FDF7D5F808B1FF2045
:103590004AE7002048E700002463726571000000DC
:1035A00001464878022801D001207047887820B968
:1035B000C8780A2801D10020F7E70120F5E7014685
:1035C0004878022801D001207047887820B9C8784F
:1035D0000A2801D10020F7E70120F5E701464878E5
:1035E000022801D001207047887820B9C8780A28BD
:1035F00001D10020F7E70120F5E7024650780228C4
:1036000001D0012070479078B0EB112F05D1D07810
:10361000CBB2984201D10020F4E70120F2E700008C
:10362000F8B50446FF2720780511012D01DB0E2D8A
:1036300001DD3846F8BD032D24D1002000906A46F4
:103640000421601CFFF754FE2044461C0098022809
:1036500003D3207800F0010008B1FF20EAE770787A
:10366000317840EA0120801C0099884201D9FF206E
:10367000E0E706A1B01CFDF77AF808B10F2700E0DB
:10368000032700E02F463846D4E700002463726524
:10369000710000000146FF208A78A2B9CA78142A76
:1036A00011D10A7932B1012A05D0022A04D0802A28
:1036B00006D103E000BF00BF002003E0012001E0CD
:1036C000022000BF00BF7047014601208A781AB966
:1036D000CA781E2A00D10020704700BFFEE770475D
:1036E00070B5002100230F22C47804B3154C246860
:1036F00004F4E064C4F5E064210AC1F10403CA40A3
:10370000447804FA03F184781440214309010E4CF3
:103710000678A155047804F01F050124AC40057813
:103720006D11AD0005F1E025C5F8004109E0047810
:1037300004F01F050124AC40044D0678761145F8CD
:10374000264070BD0CED00E000E400E080E100E008
:1037500002490143024A1160704700000000FA0567
:103760000CED00E070B5BAB000200690079008900C
:1037700009900126364805682B4636A238A12AA8AA
:10378000FCF71CFE2B4638A235A11AA8FCF716FE42
:103790002B4641A232A10AA8FCF710FE0AA81AABD8
:1037A0002AAA40A100904F4801F090F806A80021F5
:1037B00002910391CDE90410009133020AAA01910C
:1037C0001AA92AA8FFF7ACFA00283BD1079A91B2B0
:1037D0000698FFF71FF8FA20FEF790FE0446002C2B
:1037E0002CD02046FFF71CFF022827D12046FFF7E8
:1037F000E8FD06281DD2DFE800F003080C101418BD
:1038000039A0FEF757FD002617E03CA0FEF752FD59
:1038100013E041A0FEF74EFD0FE048A0FEF74AFD81
:103820000BE04EA0FEF746FD07E055A0FEF742FD77
:1038300003E05EA0FEF73EFD00BF00BF06A8FFF755
:103840001DFA02E060A0FEF735FD30463AB070BDCB
:10385000E8F7FF1F536D6172744661726D000000DE
:1038600025735F255800000055584A33636B394C67
:103870006347707354585A4D4D454E6F564531331A
:10388000575755335554686B623370525348566AD4
:103890006546593D00000000727133687A36303257
:1038A000693500004F6E654E65745F4465764C69FE
:1038B0006E6B0D0A50524F49443A2025732C094132
:1038C0005549463A2025732C0944455649443A2522
:1038D00073092D2D2D20C1ACBDD3D6D02E2E2E2E6A
:1038E0000D0A000000380140546970733A09C1ACF8
:1038F000BDD3B3C9B9A60D0A000000005741524E0E
:103900003A09C1ACBDD3CAA7B0DCA3BAD0ADD2E9E5
:10391000B4EDCEF30D0A00005741524E3A09C1AC46
:10392000BDD3CAA7B0DCA3BAB7C7B7A8B5C4636C88
:1039300069656E7469640D0A000000005741524EBB
:103940003A09C1ACBDD3CAA7B0DCA3BAB7FECEF169
:10395000C6F7CAA7B0DC0D0A000000005741524E5E
:103960003A09C1ACBDD3CAA7B0DCA3BAD3C3BBA7C5
:10397000C3FBBBF2C3DCC2EBB4EDCEF30D0A000017
:103980005741524E3A09C1ACBDD3CAA7B0DCA3BA65
:10399000B7C7B7A8C1B4BDD328B1C8C8E7746F6BA7
:1039A000656EB7C7B7A8290D0A0000004552523A04
:1039B00009C1ACBDD3CAA7B0DCA3BACEB4D6AAB4F1
:1039C000EDCEF30D0A0000005741524E3A094D5119
:1039D00054545F5061636B6574436F6E6E656374BE
:1039E000204661696C65640D0A00000070B588B0FE
:1039F00005460C460020049005900690079022464C
:103A000029460FA0FEF756FC2046FCF7C2FE0646EC
:103A100004A80121002200923346CDE90121039040
:103A2000224629460A20FFF7CBFA38B9059A91B207
:103A30000498FEF7EFFE04A8FFF720F908B070BD68
:103A40005075626C69736820546F7069633A202501
:103A5000732C204D73673A2025730D0A0000000077
:103A60002DE9F04790B0804600200C900D900E900C
:103A70000F900B900A90099008900027079000265D
:103A8000002581464046FFF7CBFD0746F81E0D286E
:103A900077D2DFE800F01AB7BFD7F476FC76F1767C
:103AA0007676070008AB0BAA0AA94046FFF743FC4D
:103AB00006464EB9BDF820309AA0DDE90A12FEF79D
:103AC000F9FB0CA8FFF7DAF8FCE09F4807A908AA61
:103AD0000BABCDE90021029009AA0AA94046FFF7E5
:103AE0007FFC0646002E7CD1BDF820000090BDF87A
:103AF000242096A0DDE90A13FEF7DCFB0B9800F00A
:103B0000FFFF8246A0A1504600F0DAFF0446A0A1C4
:103B1000A448226A00F0DAFE9DA1A248226900F0C2
:103B2000D5FEA1A12069FCF722FE98B1A0A15046C4
:103B300000F0C6FF0446606928B101209E49087064
:103B40009E49086006E000209B4908709C49087067
:103B50009A4908609BA12069FCF709FEE0B194A195
:103B6000504600F0ADFF0446606958B1002093490B
:103B70000C3908609449C1F89C01142001F042F806
:103B80000AE09CE001208D490C3908608E49C1F89B
:103B90009C01142001F036F88CA12069FCF7E7FDA8
:103BA000B8B183A1504600F08BFF0446606940B174
:103BB000002082490C39086001208649C1F894012F
:103BC00007E001207D490C39086000208149C1F8D7
:103BD000940181A12069FCF7CAFD78B174A1504617
:103BE00000E00EE000F06CFF0446606918B10120AF
:103BF0007A49086002E0002078490860504600F0E9
:103C000033FF5FE04046FFF7CBFC10B974A0FEF72E
:103C100051FB57E04046FFF7E1FC90B978A0FEF772
:103C200049FB0CA90A20FFF7C0FA50B97AA0FEF7A9
:103C300041FB0D9A91B20C98FEF7ECFD0CA8FFF732
:103C40001DF83FE0404801884046FFF7D6FC90B998
:103C500077A0FEF72FFB0CA90A20FFF782FA50B9D4
:103C600079A0FEF727FB0D9A91B20C98FEF7D2FDD2
:103C70000CA8FFF703F825E015E008E0FFE7404651
:103C8000FFF79DFC10B977A0FEF714FB1AE0404641
:103C9000FFF700FD18B979A0FEF70CFB02E07EA04B
:103CA000FEF708FB0EE04046FFF70EFD18B981A0B5
:103CB000FEF700FB02E086A0FEF7FCFA02E04FF000
:103CC000FF3600BF00BFFEF70BFC701C10B910B030
:103CD000BDE8F0877D210B98FCF72DFD0546A5B1C9
:103CE000701C90B16D1C06E015F8012B484609F1D7
:103CF000010904A90A542878302802DB28783928D9
:103D0000F2DD04A8FCF70AFD81460F2F01D0032F36
:103D100005D10A98FCF703FB0B98FCF700FB00BFEA
:103D2000D5E70000636D6469643A2025732C207226
:103D300065713A2025732C207265715F6C656E3A4F
:103D40002025640D0A00000074000020746F706963
:103D5000633A2025732C20746F7069635F6C656E05
:103D60003A2025642C207061796C6F61643A2025BB
:103D7000732C207061796C6F61645F6C656E3A20A2
:103D800025640D0A0000000074617267657400000C
:103D90006A736F6E5F76616C75653A205B25735D43
:103DA0000A00000000380140424545500000000074
:103DB00076616C756500000004000020A08121423E
:103DC000050000204C4544000080224250756D7073
:103DD000000000000000224246730000848123425C
:103DE000546970733A094D515454205075626C698E
:103DF00073682053656E64204F4B0D0A000000006D
:103E0000546970733A09526576205075626C697313
:103E1000685265630D0A0000546970733A0953656E
:103E20006E64205075626C69736852656C0D0A008F
:103E3000546970733A09526576205075626C6973E3
:103E40006852656C0D0A0000546970733A09536535
:103E50006E64205075626C697368436F6D700D0AF3
:103E600000000000546970733A095265762050755D
:103E7000626C697368436F6D700D0A0054697073EA
:103E80003A094D51545420537562736372696265E7
:103E9000204F4B0D0A000000546970733A094D51D0
:103EA000545420537562736372696265204572725F
:103EB0000D0A0000546970733A094D51545420554D
:103EC0006E537562736372696265204F4B0D0A0011
:103ED000546970733A094D51545420556E537562AC
:103EE000736372696265204572720D0A00000000FA
:103EF00070B586B004460D4600260020029003905F
:103F00000490059006E054F826100DA0FEF7D2F9B3
:103F1000701CC6B2AE42F6DB02A82B462246002138
:103F200000901420FFF765F938B9039A91B202980E
:103F3000FEF770FC02A8FEF7A1FE06B070BD0000FF
:103F400053756273637269626520546F7069633A76
:103F50002025730D0A000000704700000146002074
:103F6000034A506820F44040084350607047000006
:103F70000010024029B1064AD2690243044BDA61BB
:103F800004E0034AD2698243014BDA6170470000C2
:103F90000010024029B1064A92690243044B9A611B
:103FA00004E0034A92698243014B9A617047000022
:103FB0000010024029B1064AD2680243044BDA607D
:103FC00004E0034AD2688243014BDA607047000084
:103FD0000010024030B500210022002400232D4DA6
:103FE0006D6805F00C0121B1042905D0082923D101
:103FF00005E0294D056022E0274D05601FE0254DB5
:104000006D6805F47012234D6D6805F48034022547
:1040100005EB92421CB9214D554305600BE01D4D47
:104020006D6805F400351DB11C4D5543056002E077
:10403000194D5543056002E0174D056000BF00BFF4
:10404000144D6D6805F0F0010909154D6B5C0568AC
:10405000DD4045600F4D6D6805F4E061090A104DC3
:104060006B5C4568DD4085600A4D6D6805F4605104
:10407000C90A0B4D6B5C4568DD40C560054D6D6838
:1040800005F44041890B074D6B5CC568B5FBF3F542
:10409000056130BD0010024000127A0000093D00A9
:1040A0004E0000205E00002008B501212020FFF70F
:1040B00071FF8020ADF8000010208DF80300032070
:1040C0008DF8020069460448FEF7E2FB80210248B1
:1040D000FEF774FC08BD000000140140704710B5E5
:1040E00000F002F810BD00000CB500200190009017
:1040F0003348006840F480303149086000BF3048E0
:10410000006800F4003000900198401C0190009875
:1041100018B90198B0F5A06FF1D12948006800F4F2
:10412000003010B10120009001E0002000900098C4
:10413000012843D12348006840F01000214908605D
:104140000846006820F0030008600846006840F058
:10415000020008601A4840681949486008464068EB
:1041600048600846406840F48060486008464068FF
:1041700020F47C1048600846406840F4E81048602D
:104180000846006840F08070086000BF0C48006876
:1041900000F000700028F9D00948406820F00300C2
:1041A000074948600846406840F00200486000BF88
:1041B0000348406800F00C000828F9D10CBD00004D
:1041C0000010024000200240042808D14FF0E021F6
:1041D000096941F004014FF0E022116107E04FF05E
:1041E000E021096921F004014FF0E02211617047DC
:1041F0007047000010B51348006840F001001149F5
:10420000086008464068104908400E494860084662
:1042100000680E4908400B4908600846006820F411
:10422000802008600846406820F4FE0048604FF493
:104230001F008860FFF753FF4FF0006004490860DB
:1042400010BD0000001002400000FFF8FFFFF6FE66
:1042500008ED00E010B501210A4800F058F880B1DF
:104260000121084800F044F80748006808B9012017
:1042700000E000200449086004480088401C03490D
:10428000088010BD00040040940123424C0000202F
:104290007FB505460C4601210220FFF76BFEADF805
:1042A0000850ADF804400020ADF80A00ADF8060053
:1042B00001A90E4800F046F8012211460B4800F013
:1042C00037F81D208DF8000000208DF80100032034
:1042D0008DF8020001208DF803006846FFF700FA10
:1042E0000121024800F007F87FBD000000040040F3
:1042F000CA430282704721B1028842F00102028063
:1043000004E002884FF6FE731A400280704730B511
:104310000246002000230024158A05EA010395893E
:1043200005EA010413B10CB1012000E0002030BD0A
:104330001AB183890B43838102E083898B43838194
:1043400070470000002202881D4B98420ED01D4B82
:1043500098420BD0B0F1804F08D01B4B984205D04B
:104360001A4B984202D01A4B984204D14FF68F73E1
:104370001A404B881A43174B984207D0164B984265
:1043800004D04FF6FF431A40CB881A4302808B8833
:1043900083850B8803850A4B98420BD0094B9842C2
:1043A00008D00E4B984205D00D4B984202D00D4BD1
:1043B000984201D10B7A0386012383827047000063
:1043C000002C01400034014000040040000800407F
:1043D000000C00400010004000140040004001406C
:1043E000004401400048014010B540F22551044806
:1043F00000F0A0F818B12021014800F079F810BDB4
:104400000038014010B540F225510E4800F092F8F6
:10441000B0B10D480088802802D300200A490880E6
:104420000848001D0088C1B2074802880088401C67
:10443000054B1880054881542021024800F058F8A7
:1044400010BD00000044004070000020B8010020B2
:1044500010B540F225511F4800F06CF8002837D005
:104460001C4800F023F9C4B222461BA11B4800F0EF
:104470002DFA2CB900201A4908601A49C1F89C018C
:10448000112C05D10120164908601649C1F89C017C
:10449000012C02D1012014490860022C02D1002015
:1044A00011490860032C02D1012010490860042C36
:1044B00002D100200D490860052C03D101200849D4
:1044C0000C310860062C03D1002005490C3108602E
:1044D00010BD000000480040257800000038014071
:1044E000948121420080224294012242848123420D
:1044F00001F40072B2F5007F00D100BFCA43028010
:10450000704721B1828942F40052828104E082899D
:104510004DF6FF731A408281704702460020B1F5C4
:10452000007F00D100BF13880B400BB1012000E0D9
:104530000020704770B502460024002300250020AB
:1045400040F66A16B14200D100BFC1F3421501F036
:104550001F03012606FA03F3012D02D19689334089
:1045600006E0022D02D1168A334001E0968A3340DC
:104570000C12012606FA04F41688344013B10CB16B
:10458000012000E0002070BDF0B5034600240026A5
:104590000025002040F66A17B94200D100BF184636
:1045A000C1F3421401F01F06012707FA06F5012C9A
:1045B00001D10C3004E0022C01D1103000E01430A5
:1045C0001AB107682F43076002E00768AF4307602E
:1045D000F0BD00002DE9F04786B005460E460024E8
:1045E000A24600BFA1460027B08900B100BF2F46F8
:1045F0002C8A4CF6FF700440F08804432C82AC896E
:104600004EF6F3100440B08831890843718908439D
:104610000443AC81AC8A4FF6FF400440B0890443A8
:10462000AC8201A8FFF7D6FC1F48874202D1DDF813
:1046300010A001E0DDF80CA0A88900F4004040B112
:104640000AEBCA0000EB0A1031684900B0FBF1F830
:1046500007E00AEBCA0000EB0A1031688900B0FBE2
:10466000F1F86420B8FBF0F004012009642101FB9B
:104670001089A88900F4004040B1322000EBC90045
:10468000B0FBF1F000F00700044308E0322000EB3B
:1046900009106421B0FBF1F000F00F0004432C81FD
:1046A00006B0BDE8F0870000003801400146888868
:1046B000C0F308007047C1F308028280704700BF52
:1046C000FEE7000010B586B0044601210420FFF784
:1046D00061FC01218803FFF75DFC18208DF81700AD
:1046E0004FF40070ADF8140003208DF8160005A9F2
:1046F0001E48FEF7CDF804208DF817000002ADF833
:10470000140003208DF8160005A91848FEF7C0F81C
:1047100001940020ADF810000C20ADF80E00002030
:10472000ADF80C00ADF80A00ADF8080001A910487A
:10473000FFF750FF01210E48FFF7E3FE012240F290
:1047400025510B48FFF720FF25208DF800000120A0
:104750008DF8030000208DF8010002208DF8020082
:104760006846FEF7BDFF06B010BD0000000801401E
:104770000038014010B586B0044601210420FFF73F
:1047800009FC01214804FFF7F5FB18208DF81700FC
:104790000420ADF8140003208DF8160005A91E486A
:1047A000FEF776F804208DF817000820ADF8140005
:1047B00003208DF8160005A91748FEF769F8019443
:1047C0000020ADF810000C20ADF80E000020ADF870
:1047D0000C00ADF80A00ADF8080001A90F48FFF77A
:1047E000F9FE01210D48FFF78CFE012240F2255110
:1047F0000A48FFF7C9FE26208DF8000001208DF839
:10480000030000208DF801008DF802006846FEF7D5
:1048100067FF06B010BD00000008014000440040E2
:1048200010B586B0044601210820FFF7B3FB012133
:104830008804FFF79FFB18208DF817004FF4806065
:10484000ADF8140003208DF8160005A91D48FEF7E9
:104850001FF804208DF817004002ADF81400032063
:104860008DF8160005A91748FEF712F801940020EC
:10487000ADF810000C20ADF80E000020ADF80C00D3
:10488000ADF80A00ADF8080001A90F48FFF7A2FE35
:1048900001210D48FFF735FE012240F225510A485B
:1048A000FFF772FE27208DF8000001208DF803002D
:1048B00000208DF801008DF802006846FEF710FF19
:1048C00006B010BD000C0140004800400FB430B5E8
:1048D000CBB0054601AC50A800904FF4947101A8EC
:1048E000009B4F9AFBF750FD002000900BE014F85E
:1048F000011B2846FFF7DFFE00BF40212846FFF7D7
:104900000CFE0028F9D020780028F0D14BB030BC44
:104910005DF814FB2DE9F04107460C4615460026CC
:104920000DE014F8011B3846FFF7C5FE00BF40211B
:104930003846FFF7F2FD0028F9D0701C86B2AE426F
:10494000EFDBBDE8F081490050EAC12018BF042028
:104950004A0D18BF40F0010040F2FF72B2EB515F08
:1049600008BF40F00200012808BF052070472DE96C
:10497000F0414F1E00EBC7010446D1E90001154686
:104980001E4637F006020DD02A46334601F0BCFF22
:104990007F1E04EBC703D3E9002301F00BFD37F0C2
:1049A0000602F1D1022F25D0042F13D0062F18BFF5
:1049B000BDE8F0812A46334601F0A6FFD4E90A2378
:1049C00001F0F8FC2A46334601F09EFFD4E90823A3
:1049D00001F0F0FC2A46334601F096FFD4E90623A5
:1049E00001F0E8FC2A46334601F08EFFD4E90423A7
:1049F00001F0E0FC2A46334601F086FFD4E90223A9
:104A000001F0D8FC2A46334601F07EFFD4E90023AA
:104A1000BDE8F04101F0CEBC00221346104601492A
:104A200001F084BD0000F03F01F0C4BC0022134639
:104A30001046114601F07ABD40F2013200204FF0DD
:104A4000E04102F062BD0000024A0020110702F0BE
:104A50005CBD000001FDFFFF30380A2801D20120B3
:104A6000704700207047000070B5044622E02568BA
:104A7000A08900F4807020B9A06810B1A068FFF789
:104A8000F3FFA08900F4807028B9206918B10B49A0
:104A9000206909688847A08900F4007028B9206A55
:104AA00018B10649206A0968884720460349096801
:104AB00088472C46002CDAD170BD00006C00002025
:104AC00070B505460E46AC6800E024682CB131464E
:104AD000206A00F04FF80028F7D1204670BD000092
:104AE00010B5282005490968884704461CB12821CB
:104AF0002046FBF751FF204610BD00006800002053
:104B000010B5044600221146204600F001F810BD01
:104B10002DE9F04780460D4616460024FFF7E0FFDA
:104B200007460020124908600FB9BDE8F0874046EB
:104B300001F0B2FB81464946384600F049FE044682
:104B400024B93846FFF790FF0020EEE766B1204613
:104B500001F0A2FB0446207830B13846FFF784FF0D
:104B6000034804600020E0E705B12C603846DCE72C
:104B70006400002070B504460D462CB9AC4201D04B
:104B8000012070BD0020FCE70DB90120F9E705E028
:104B9000207808B90020F4E7641C6D1C2078FBF72E
:104BA000E5FB06462878FBF7E1FB8642F0D020784B
:104BB000FBF7DCFB06462878FBF7D8FB301AE0E76A
:104BC00010B56FF00400FFF7FFFA0A4800680A49C1
:104BD000B0FBF1F0094908700846007800EB40018D
:104BE000C1EBC0104FF6FF7101EAC0000449088014
:104BF00010BD00002000002000127A0048000020B4
:104C00004A0000200146114A12884A434FF0E0232F
:104C10005A6100229A611A46126942F001021A6131
:104C200000BF4FF0E022106900F001021AB100F459
:104C30008032002AF5D04FF0E022126922F0010202
:104C40004FF0E0231A6100229A6170474A00002069
:104C50000146114A12784A434FF0E0235A6100227C
:104C60009A611A46126942F001021A6100BF4FF0C0
:104C7000E022106900F001021AB100F48032002A2B
:104C8000F5D04FF0E022126922F001024FF0E0234C
:104C90001A6100229A6170474800002008B501217E
:104CA0008020FFF777F90220ADF8000010208DF882
:104CB000030003208DF8020069460448FDF7E8FD73
:104CC00002210248FDF778FE08BD0000001C0140EB
:104CD00010B580200949086000F012F8402007490B
:104CE000091F086000F00CF840200449086000F03B
:104CF00007F880200149091F086010BD140C01400D
:104D0000002001E0411CC8B20A28FBDB704700000C
:104D100010B5802007490860FFF7F2FF40200549E1
:104D20000860FFF7EDFF40200249091D0860FFF70A
:104D3000E7FF10BD100C014070B50024002516E0FF
:104D40006006040E40200C490860FFF7D9FF0A48AE
:104D50000838006800F0800008B1601CC4B2402030
:104D60000549091D0860FFF7CBFF681CC5B2082D77
:104D7000E6DB204670BD0000100C014070B5044613
:104D8000002520E004F0800018B180200F49086061
:104D900003E080200D49091D0860FFF7B1FF4020A6
:104DA0000A490860FFF7ACFF40200849091D086068
:104DB000072D02D18020091F08606006040EFFF74E
:104DC0009FFF681CC5B2082DDCDB70BD100C0140D4
:104DD00010B580200949086040200860FFF790FF67
:104DE00080200649091D0860FFF78AFF402003491B
:104DF000091D0860FFF784FF10BD0000100C014082
:104E000010B58020054908604020091F0860FFF7A1
:104E100077FF80200149091F086010BD140C014074
:104E200010B580200C490860FFF76AFF40200A494E
:104E30000860FFF765FF08480838006800F0800048
:104E400008B1012400E0002440200349091D086046
:104E5000FFF756FF204610BD100C014088B04FF000
:104E6000000BDA46FFF7ACFEFDF734FEFDF78AFAD9
:104E7000FDF7BEF9FFF718F9FDF7EFF9FDF772F945
:104E8000FDF72AF94FF4E130FFF71CFC4FF4E13055
:104E9000FFF770FC4FF41650FFF7C2FCFDF756FB0E
:104EA000FFF7FCFE01F0DEF9FDF7EEFD4FF4A06028
:104EB000FEF74EFC41F61F4141F28730FFF7E8F95B
:104EC00003E04FF4FA70FFF79DFEFEF74BFC00285D
:104ED000F7D101216E48FFF70BF8D7E00A21084609
:104EE000FDF788FD6B4908800846008840F6FF7191
:104EF000081A6421484340F6DC4190FBF1F0664912
:104F00000880664B664A67496748FDF790FA634830
:104F1000007801F0A9FC654A654BCDE9060101F076
:104F2000F3FC06460F465E48007801F09DFC804683
:104F300032463B4601F03EFA044601F009FA5D496B
:104F400008600846006801F0EFFF044622460B4661
:104F500059A15E48FBF732FA5C48FDF77DFDFF2062
:104F6000FDF760FD4C48028859A15848FBF726FA26
:104F70005648FDF771FDFF20FDF754FDFDF7D0FD0C
:104F8000584908600846006801F0CEFF04462246F2
:104F90000B4655A14D48FBF711FA4C48FDF75CFD57
:104FA000FF20FDF73FFDFDF7CDFD544908600846A1
:104FB000006801F0B9FF044622460B4650A1434861
:104FC000FBF7FCF94148FDF747FDFF20FDF72AFDFF
:104FD0000BF1010080B28346C8284DDB20214D48EB
:104FE000FDF7E1FC4C4908704448006801F09CFF63
:104FF00004460D463B48006801F096FF02AA33C202
:10500000264800780090264803782348028843A168
:105010004E48FFF75BFC4EA14C48FFF757FC374862
:10502000006801F081FF04460D462E48006801F03B
:105030007BFF06460F464B4800783749097809B987
:10504000012100E00021CDE90267CDE90445CDE969
:105050000610124800780090114803780E48028824
:1050600041494248FBF7AAF940494148FEF7BEFCD6
:105070004FF0000BFDF734FA0320FDF73FFA8246AC
:10508000BAF1000F02D05046FEF7EAFC26E7000016
:105090001C000020080000200A000020030000205F
:1050A0000200002001000020000000207B14AE4719
:1050B000E17A843F1400002070616765302E7430FF
:1050C0002E7478743D22252E31662200780100204E
:1050D00070616765302E74322E7478743D222564B9
:1050E000220000000C00002070616765302E7431D2
:1050F0002E7478743D22252E316622001000002087
:1051000070616765302E74332E7478743D22252EBD
:1051100031662200000C014007000020CAAAB6C870
:105120003A2564CEC2B6C83A25642E256420B9E279
:10513000D5D5C7BFB6C8A3BA252E31662070706D0D
:10514000D6B5A3BA252E3166000000000038014014
:105150004F6E654E65745F5075626C6973680D0AB9
:1051600000000000040000202877000878000020DC
:10517000967500082DE9F04705460C4620785B2817
:1051800004D0264804600020BDE8F0870520E860D0
:10519000601C01F081F8044620785D2801D1601C74
:1051A000F2E7FFF79DFC0646A860A86808B9002052
:1051B000EAE7204601F070F880464146304600F0AC
:1051C00007FB074601F068F804460CB90020DBE74E
:1051D00017E0FFF785FC071E00D1D5E737607E603A
:1051E0003E46601C01F058F881464946304600F0C2
:1051F000EFFA804601F050F804460CB90020C3E7EE
:1052000000BF20782C28E4D020785D2801D1601CD4
:10521000BAE7024804600020B6E7000064000020FE
:10522000014600220878302806DB0878392803DC9C
:1052300008783038024415E00878412806DB087801
:10524000462803DC0878373802440BE008786128E8
:1052500006DB0878662803DC08785738024401E04A
:10526000002070471201491C0878302806DB0878B6
:10527000392803DC08783038024415E008784128E2
:1052800006DB0878462803DC0878373802440BE050
:105290000878612806DB0878662803DC0878573828
:1052A000024401E00020DCE71201491C08783028A4
:1052B00006DB0878392803DC08783038024415E02A
:1052C0000878412806DB0878462803DC0878373858
:1052D00002440BE00878612806DB0878662803DCC6
:1052E00008785738024401E00020BAE71201491C4F
:1052F0000878302806DB0878392803DC087830384D
:10530000024415E00878412806DB0878462803DCCB
:105310000878373802440BE00878612806DB087803
:10532000662803DC08785738024401E0002098E73B
:10533000104696E72DE9F04F8BB083468A46002051
:10534000044605460026674F002188468946099095
:10535000012008909AF800002D2802D1624F0AF12E
:10536000010A9AF80000302801D10AF1010A9AF8DE
:105370000000312822DB9AF8000039281EDC00BF2B
:105380001AF8011BA1F1300001F057FA0022574B27
:10539000CDE906012046294601F0B6FACDE904011F
:1053A000DDE9062301F006F804460D469AF80000F0
:1053B000302803DB9AF800003928E1DD9AF8000074
:1053C0002E2830D19AF8010030282CDB9AF8010001
:1053D000392828DC0AF1010A00BF1AF8011BA1F1E3
:1053E000300001F02AFA0022404BCDE906012046A8
:1053F000294601F089FACDE90401DDE9062300F030
:10540000D9FF04460D460022364B4046494601F07E
:10541000A1FC804689469AF80000302803DB9AF800
:1054200000003928D9DD9AF80000652803D09AF8E1
:105430000000452823D10AF1010A9AF800002B2820
:1054400002D10AF1010A08E09AF800002D2804D1DF
:105450004FF0FF3008900AF1010A08E01AF8010B3A
:105460003038099901EB810100EB410009909AF86D
:105470000000302803DB9AF800003928EEDDDDE972
:10548000082101FB02F001F0D8F942464B46CDE974
:10549000000100F08FFF02460B46CDE9020100201B
:1054A000124900F0F3F922462B46CDE906013046B9
:1054B000394601F029FACDE90401DDE9062301F0BE
:1054C00023FA04460D46CBE906452046294601F05D
:1054D00085F9CBF814000320CBF80C0050460BB034
:1054E000BDE8F08F0000F03F0000F0BF0000244056
:1054F0002DE9F04706460C4620787B2804D040482A
:1055000004600020BDE8F0870620F060601C00F019
:10551000C3FE044620787D2801D1601CF2E7FFF726
:10552000DFFA0546B060B06808B90020EAE7204617
:1055300000F0B2FE80464146284600F063F8074678
:1055400000F0AAFE04460CB90020DBE728692862B7
:105550000020286120783A2803D0294804600020E0
:10556000D0E7601C00F098FE80464146284600F0D7
:105570002FF9074600F090FE04460CB90020C1E761
:1055800031E0FFF7ADFA071E00D1BBE72F607D6069
:105590003D46601C00F080FE81464946284600F0EA
:1055A00031F8804600F078FE04460CB90020A9E7E7
:1055B000286928620020286120783A2803D0104802
:1055C000046000209EE7601C00F066FE81464946AC
:1055D000284600F0FDF8804600F05EFE04460CB957
:1055E00000208FE700BF20782C28CAD020787D28A3
:1055F00001D1601C86E702480460002082E70000B9
:10560000640000202DE9F05F8346884608F101041C
:10561000002798F80000222805D06A48C0F80080CA
:105620000020BDE8F09F04E014F8011B5C2900D1C4
:10563000641C2078222804D0207810B1781C071E22
:10564000F2D1781C6049096888478146B9F1000F9A
:1056500001D10020E5E708F101044D469EE02078E5
:105660005C2804D014F8010B05F8010B96E0641CCB
:105670002078722818D006DC622809D066280BD062
:105680006E287DD10CE0742812D07528F9D113E072
:10569000082005F8010B7FE00C2005F8010B7BE0EA
:1056A0000A2005F8010B77E00D2005F8010B73E0E7
:1056B000092005F8010B6FE0601CFFF7B1FD0646FD
:1056C000241DB6F55C4F02D3B6F5604F00D306B982
:1056D00062E0B6F5584F1CD3B6F55C4F19D260782E
:1056E0005C2802D1A078752800D055E0E01CFFF7B7
:1056F00097FD8246A41DBAF55C4F02D3BAF5604F00
:1057000000D349E0C6F30901504661F39F2000F53C
:1057100080360427802E01D2012708E0B6F5006FFD
:1057200001D2022703E0B6F5803F00D203273D44B3
:10573000012F20D0022F15D0032F0AD0042F24D1FF
:1057400006F0BF0040F08001681E05460170B609F2
:1057500000BF06F0BF0040F08001681E05460170E2
:10576000B60900BF06F0BF0040F08001681E054684
:105770000170B60900BF1548C05D3043C1B200E0FA
:1057800006E0681E0546017000BF00BF3D4403E00F
:10579000207805F8010B00BF00BF641C2078222888
:1057A00003D0207800287FF45AAF0020287020789A
:1057B000222800D1641CCBF810900420CBF80C00F8
:1057C00020462EE76400002068000020A77500082E
:1057D00070B505460C460CB9002070BD042224A10A
:1057E0002046FAF7F5FF18B90220E860201DF4E71B
:1057F000052221A12046FAF7EBFF18B90020E86046
:10580000601DEAE704221EA12046FAF7E1FF20B955
:105810000120E8606861201DDFE72078222804D19C
:1058200021462846FFF7EEFED7E720782D2805D041
:105830002078302807DB2078392804DC21462846E8
:10584000FFF778FDC9E720785B2804D12146284678
:10585000FFF790FCC1E720787B2804D12146284639
:10586000FFF746FEB9E7084804600020B5E70000EE
:105870006E756C6C0000000066616C736500000062
:105880007472756500000000640000202DE9F04D81
:105890001D460C4698B0174621F0004123F0004306
:1058A000002814BF4FF0010C4FF0000C0CEB440C1F
:1058B000FE4A0CEB02064FEA620C66452BD33E0013
:1058C00018BF012606EB45061644F94A964222D334
:1058D000F84A53EA070C02D0944205D148B918B0EF
:1058E00000201146BDE8F08D002808BF4FF0000CE5
:1058F00001D04FF0010C0CEB440212F5001F0AD846
:10590000002F14BF4FF0010C4FF0000C0CEB4502C0
:1059100012F5001F07D918B03A462B462146BDE8BC
:10592000F04DFFF781B80022DFF88CA3002CB8BF40
:10593000534526DADFF884C36345A8BF022220DA84
:10594000DFF870C39C451CDCDFF874C30CEB235CF0
:10595000BCF1140F08DDCCF1340627FA06FC0CFA72
:1059600006F6BE420DD108E05FB9CCF1140623FA69
:1059700006FC0CFA06F69E4203D10CF00102C2F1BD
:10598000020251EA000C19D1002D17DA002C18BFC1
:10599000022A01D0012A07D00220FBF78AF818B0AA
:1059A000BDE8F04DFFF738B80220FBF782F8FFF7AB
:1059B00033F818B081F00041BDE8F08DB7F1000C6C
:1059C0006CD1534525D104F1804212F5801201BFFC
:1059D00000280020B74918B008BFBDE8F08DB548D1
:1059E000884207DC002DA1BF6046294618B0BDE8FB
:1059F000F08D07E0281E05DA80F0004118B06046FF
:105A0000BDE8F08DAF497944D1E9000118B0BDE897
:105A1000F08DDFF8A0C2634525D1002D1FDA19B142
:105A2000514512D1D8B909E0002840F0EC82A24AD1
:105A3000214618B062F31E01BDE8F08D002021461A
:105A400018B060F31E01BDE8F08D08DA18B02346E7
:105A5000BDE8F04D02460020614600F067BD18B079
:105A60002146BDE8F08D514518DAB5F1804F0DD0D3
:105A7000A5F1005CBCF1FF5C10D1B4F1000C0DDBB2
:105A800018B06146BDE8F04D00F00FBC234618B0D9
:105A90000246BDE8F04D194600F036BF060024F07E
:105AA000004C3BD1D9B1514533D1002C06DD002D3E
:105AB000A1BF0020514618B0BDE8F08D002C01DDDB
:105AC000002D1BDB002C13DA002D11DB012A4FF017
:105AD000000014BF78497C4918B0BDE8F08D022A57
